{
  "_format": "hh-sol-artifact-1",
  "contractName": "MyEpicNFT",
  "sourceName": "contracts/MyEpicNFT.sol",
  "abi": [
    {
      "inputs": [],
      "stateMutability": "nonpayable",
      "type": "constructor"
    },
    {
      "anonymous": false,
      "inputs": [
        {
          "indexed": true,
          "internalType": "address",
          "name": "owner",
          "type": "address"
        },
        {
          "indexed": true,
          "internalType": "address",
          "name": "approved",
          "type": "address"
        },
        {
          "indexed": true,
          "internalType": "uint256",
          "name": "tokenId",
          "type": "uint256"
        }
      ],
      "name": "Approval",
      "type": "event"
    },
    {
      "anonymous": false,
      "inputs": [
        {
          "indexed": true,
          "internalType": "address",
          "name": "owner",
          "type": "address"
        },
        {
          "indexed": true,
          "internalType": "address",
          "name": "operator",
          "type": "address"
        },
        {
          "indexed": false,
          "internalType": "bool",
          "name": "approved",
          "type": "bool"
        }
      ],
      "name": "ApprovalForAll",
      "type": "event"
    },
    {
      "anonymous": false,
      "inputs": [
        {
          "indexed": false,
          "internalType": "uint256",
          "name": "_fromTokenId",
          "type": "uint256"
        },
        {
          "indexed": false,
          "internalType": "uint256",
          "name": "_toTokenId",
          "type": "uint256"
        }
      ],
      "name": "BatchMetadataUpdate",
      "type": "event"
    },
    {
      "anonymous": false,
      "inputs": [
        {
          "indexed": false,
          "internalType": "uint256",
          "name": "_tokenId",
          "type": "uint256"
        }
      ],
      "name": "MetadataUpdate",
      "type": "event"
    },
    {
      "anonymous": false,
      "inputs": [
        {
          "indexed": false,
          "internalType": "address",
          "name": "sender",
          "type": "address"
        },
        {
          "indexed": false,
          "internalType": "uint256",
          "name": "tokenId",
          "type": "uint256"
        }
      ],
      "name": "NewEpicNFTMinted",
      "type": "event"
    },
    {
      "anonymous": false,
      "inputs": [
        {
          "indexed": true,
          "internalType": "address",
          "name": "from",
          "type": "address"
        },
        {
          "indexed": true,
          "internalType": "address",
          "name": "to",
          "type": "address"
        },
        {
          "indexed": true,
          "internalType": "uint256",
          "name": "tokenId",
          "type": "uint256"
        }
      ],
      "name": "Transfer",
      "type": "event"
    },
    {
      "inputs": [
        {
          "internalType": "address",
          "name": "to",
          "type": "address"
        },
        {
          "internalType": "uint256",
          "name": "tokenId",
          "type": "uint256"
        }
      ],
      "name": "approve",
      "outputs": [],
      "stateMutability": "nonpayable",
      "type": "function"
    },
    {
      "inputs": [
        {
          "internalType": "address",
          "name": "owner",
          "type": "address"
        }
      ],
      "name": "balanceOf",
      "outputs": [
        {
          "internalType": "uint256",
          "name": "",
          "type": "uint256"
        }
      ],
      "stateMutability": "view",
      "type": "function"
    },
    {
      "inputs": [
        {
          "internalType": "uint256",
          "name": "tokenId",
          "type": "uint256"
        }
      ],
      "name": "getApproved",
      "outputs": [
        {
          "internalType": "address",
          "name": "",
          "type": "address"
        }
      ],
      "stateMutability": "view",
      "type": "function"
    },
    {
      "inputs": [
        {
          "internalType": "address",
          "name": "owner",
          "type": "address"
        },
        {
          "internalType": "address",
          "name": "operator",
          "type": "address"
        }
      ],
      "name": "isApprovedForAll",
      "outputs": [
        {
          "internalType": "bool",
          "name": "",
          "type": "bool"
        }
      ],
      "stateMutability": "view",
      "type": "function"
    },
    {
      "inputs": [],
      "name": "makeAnEpicNFT",
      "outputs": [],
      "stateMutability": "nonpayable",
      "type": "function"
    },
    {
      "inputs": [],
      "name": "name",
      "outputs": [
        {
          "internalType": "string",
          "name": "",
          "type": "string"
        }
      ],
      "stateMutability": "view",
      "type": "function"
    },
    {
      "inputs": [
        {
          "internalType": "uint256",
          "name": "tokenId",
          "type": "uint256"
        }
      ],
      "name": "ownerOf",
      "outputs": [
        {
          "internalType": "address",
          "name": "",
          "type": "address"
        }
      ],
      "stateMutability": "view",
      "type": "function"
    },
    {
      "inputs": [
        {
          "internalType": "uint256",
          "name": "tokenId",
          "type": "uint256"
        }
      ],
      "name": "pickRandomWords",
      "outputs": [
        {
          "internalType": "string[]",
          "name": "",
          "type": "string[]"
        }
      ],
      "stateMutability": "view",
      "type": "function"
    },
    {
      "inputs": [
        {
          "internalType": "address",
          "name": "from",
          "type": "address"
        },
        {
          "internalType": "address",
          "name": "to",
          "type": "address"
        },
        {
          "internalType": "uint256",
          "name": "tokenId",
          "type": "uint256"
        }
      ],
      "name": "safeTransferFrom",
      "outputs": [],
      "stateMutability": "nonpayable",
      "type": "function"
    },
    {
      "inputs": [
        {
          "internalType": "address",
          "name": "from",
          "type": "address"
        },
        {
          "internalType": "address",
          "name": "to",
          "type": "address"
        },
        {
          "internalType": "uint256",
          "name": "tokenId",
          "type": "uint256"
        },
        {
          "internalType": "bytes",
          "name": "data",
          "type": "bytes"
        }
      ],
      "name": "safeTransferFrom",
      "outputs": [],
      "stateMutability": "nonpayable",
      "type": "function"
    },
    {
      "inputs": [
        {
          "internalType": "address",
          "name": "operator",
          "type": "address"
        },
        {
          "internalType": "bool",
          "name": "approved",
          "type": "bool"
        }
      ],
      "name": "setApprovalForAll",
      "outputs": [],
      "stateMutability": "nonpayable",
      "type": "function"
    },
    {
      "inputs": [
        {
          "internalType": "bytes4",
          "name": "interfaceId",
          "type": "bytes4"
        }
      ],
      "name": "supportsInterface",
      "outputs": [
        {
          "internalType": "bool",
          "name": "",
          "type": "bool"
        }
      ],
      "stateMutability": "view",
      "type": "function"
    },
    {
      "inputs": [],
      "name": "symbol",
      "outputs": [
        {
          "internalType": "string",
          "name": "",
          "type": "string"
        }
      ],
      "stateMutability": "view",
      "type": "function"
    },
    {
      "inputs": [
        {
          "internalType": "uint256",
          "name": "tokenId",
          "type": "uint256"
        }
      ],
      "name": "tokenURI",
      "outputs": [
        {
          "internalType": "string",
          "name": "",
          "type": "string"
        }
      ],
      "stateMutability": "view",
      "type": "function"
    },
    {
      "inputs": [
        {
          "internalType": "address",
          "name": "from",
          "type": "address"
        },
        {
          "internalType": "address",
          "name": "to",
          "type": "address"
        },
        {
          "internalType": "uint256",
          "name": "tokenId",
          "type": "uint256"
        }
      ],
      "name": "transferFrom",
      "outputs": [],
      "stateMutability": "nonpayable",
      "type": "function"
    }
  ],
  "bytecode": "0x608060405260405180610160016040528061012f8152602001620045c461012f91396008908162000031919062000c56565b506040518061016001604052806040518060400160405280600981526020017f46616e746173746963000000000000000000000000000000000000000000000081525081526020016040518060400160405280600881526020017f5465727269626c6500000000000000000000000000000000000000000000000081525081526020016040518060400160405280600481526020017f457069630000000000000000000000000000000000000000000000000000000081525081526020016040518060400160405280600581526020017f4372617a7900000000000000000000000000000000000000000000000000000081525081526020016040518060400160405280600481526020017f57696c640000000000000000000000000000000000000000000000000000000081525081526020016040518060400160405280600a81526020017f54657272696679696e670000000000000000000000000000000000000000000081525081526020016040518060400160405280600481526020017f487567650000000000000000000000000000000000000000000000000000000081525081526020016040518060400160405280600481526020017f54696e790000000000000000000000000000000000000000000000000000000081525081526020016040518060400160405280600581526020017f4d616e696300000000000000000000000000000000000000000000000000000081525081526020016040518060400160405280600581526020017f46756e6e7900000000000000000000000000000000000000000000000000000081525081526020016040518060400160405280600981526020017f43617461746f6e69630000000000000000000000000000000000000000000000815250815250600990600b620002d79291906200088f565b506040518061014001604052806040518060400160405280600781526020017f43757063616b650000000000000000000000000000000000000000000000000081525081526020016040518060400160405280600581526020017f50697a7a6100000000000000000000000000000000000000000000000000000081525081526020016040518060400160405280600981526020017f4d696c6b7368616b65000000000000000000000000000000000000000000000081525081526020016040518060400160405280600581526020017f437572727900000000000000000000000000000000000000000000000000000081525081526020016040518060400160405280600781526020017f436869636b656e0000000000000000000000000000000000000000000000000081525081526020016040518060400160405280600881526020017f53616e647769636800000000000000000000000000000000000000000000000081525081526020016040518060400160405280600681526020017f506f7461746f000000000000000000000000000000000000000000000000000081525081526020016040518060400160405280600381526020017f466967000000000000000000000000000000000000000000000000000000000081525081526020016040518060400160405280600981526020017f48616d627572676572000000000000000000000000000000000000000000000081525081526020016040518060400160405280600681526020017f5069636b6c650000000000000000000000000000000000000000000000000000815250815250600a90600a62000542929190620008ef565b506040518061016001604052806040518060400160405280600481526020017f466f72640000000000000000000000000000000000000000000000000000000081525081526020016040518060400160405280600481526020017f47726f670000000000000000000000000000000000000000000000000000000081525081526020016040518060400160405280600681526020017f4a6573746572000000000000000000000000000000000000000000000000000081525081526020016040518060400160405280600581526020017f4d6f6c6c7900000000000000000000000000000000000000000000000000000081525081526020016040518060400160405280600581526020017f43616c656200000000000000000000000000000000000000000000000000000081525081526020016040518060400160405280600481526020017f4675726e0000000000000000000000000000000000000000000000000000000081525081526020016040518060400160405280600381526020017f566578000000000000000000000000000000000000000000000000000000000081525081526020016040518060400160405280600381526020017f566178000000000000000000000000000000000000000000000000000000000081525081526020016040518060400160405280600581526020017f506572637900000000000000000000000000000000000000000000000000000081525081526020016040518060400160405280600781526020017f5363616e6c656e0000000000000000000000000000000000000000000000000081525081526020016040518060400160405280600781526020017f4b69656c65746800000000000000000000000000000000000000000000000000815250815250600b90600b620007e89291906200088f565b50348015620007f657600080fd5b506040518060400160405280600981526020017f5371756172654e465400000000000000000000000000000000000000000000008152506040518060400160405280600581526020017f5351555245000000000000000000000000000000000000000000000000000000815250816000908162000874919062000c56565b50806001908162000886919062000c56565b50505062000d3d565b828054828255906000526020600020908101928215620008dc579160200282015b82811115620008db578251829081620008ca919062000c56565b5091602001919060010190620008b0565b5b509050620008eb91906200094f565b5090565b8280548282559060005260206000209081019282156200093c579160200282015b828111156200093b5782518290816200092a919062000c56565b509160200191906001019062000910565b5b5090506200094b91906200094f565b5090565b5b8082111562000973576000818162000969919062000977565b5060010162000950565b5090565b508054620009859062000a45565b6000825580601f10620009995750620009ba565b601f016020900490600052602060002090810190620009b99190620009bd565b5b50565b5b80821115620009d8576000816000905550600101620009be565b5090565b600081519050919050565b7f4e487b7100000000000000000000000000000000000000000000000000000000600052604160045260246000fd5b7f4e487b7100000000000000000000000000000000000000000000000000000000600052602260045260246000fd5b6000600282049050600182168062000a5e57607f821691505b60208210810362000a745762000a7362000a16565b5b50919050565b60008190508160005260206000209050919050565b60006020601f8301049050919050565b600082821b905092915050565b60006008830262000ade7fffffffffffffffffffffffffffffffffffffffffffffffffffffffffffffffff8262000a9f565b62000aea868362000a9f565b95508019841693508086168417925050509392505050565b6000819050919050565b6000819050919050565b600062000b3762000b3162000b2b8462000b02565b62000b0c565b62000b02565b9050919050565b6000819050919050565b62000b538362000b16565b62000b6b62000b628262000b3e565b84845462000aac565b825550505050565b600090565b62000b8262000b73565b62000b8f81848462000b48565b505050565b5b8181101562000bb75762000bab60008262000b78565b60018101905062000b95565b5050565b601f82111562000c065762000bd08162000a7a565b62000bdb8462000a8f565b8101602085101562000beb578190505b62000c0362000bfa8562000a8f565b83018262000b94565b50505b505050565b600082821c905092915050565b600062000c2b6000198460080262000c0b565b1980831691505092915050565b600062000c46838362000c18565b9150826002028217905092915050565b62000c6182620009dc565b67ffffffffffffffff81111562000c7d5762000c7c620009e7565b5b62000c89825462000a45565b62000c9682828562000bbb565b600060209050601f83116001811462000cce576000841562000cb9578287015190505b62000cc5858262000c38565b86555062000d35565b601f19841662000cde8662000a7a565b60005b8281101562000d085784890151825560018201915060208501945060208101905062000ce1565b8683101562000d28578489015162000d24601f89168262000c18565b8355505b6001600288020188555050505b505050505050565b6138778062000d4d6000396000f3fe608060405234801561001057600080fd5b50600436106100f55760003560e01c806370a0823111610097578063b88d4fde11610066578063b88d4fde14610296578063c87b56dd146102b2578063de9d132f146102e2578063e985e9c5146102ec576100f5565b806370a08231146101fc57806370a13d231461022c57806395d89b411461025c578063a22cb4651461027a576100f5565b8063095ea7b3116100d3578063095ea7b31461017857806323b872dd1461019457806342842e0e146101b05780636352211e146101cc576100f5565b806301ffc9a7146100fa57806306fdde031461012a578063081812fc14610148575b600080fd5b610114600480360381019061010f91906120fd565b61031c565b6040516101219190612145565b60405180910390f35b61013261037d565b60405161013f91906121f0565b60405180910390f35b610162600480360381019061015d9190612248565b61040f565b60405161016f91906122b6565b60405180910390f35b610192600480360381019061018d91906122fd565b610455565b005b6101ae60048036038101906101a9919061233d565b61056c565b005b6101ca60048036038101906101c5919061233d565b6105cc565b005b6101e660048036038101906101e19190612248565b6105ec565b6040516101f391906122b6565b60405180910390f35b61021660048036038101906102119190612390565b610672565b60405161022391906123cc565b60405180910390f35b61024660048036038101906102419190612248565b610729565b60405161025391906124f3565b60405180910390f35b610264610ab1565b60405161027191906121f0565b60405180910390f35b610294600480360381019061028f9190612541565b610b43565b005b6102b060048036038101906102ab91906126b6565b610b59565b005b6102cc60048036038101906102c79190612248565b610bbb565b6040516102d991906121f0565b60405180910390f35b6102ea610ccd565b005b61030660048036038101906103019190612739565b610e53565b6040516103139190612145565b60405180910390f35b6000634906490660e01b7bffffffffffffffffffffffffffffffffffffffffffffffffffffffff1916827bffffffffffffffffffffffffffffffffffffffffffffffffffffffff19161480610376575061037582610ee7565b5b9050919050565b60606000805461038c906127a8565b80601f01602080910402602001604051908101604052809291908181526020018280546103b8906127a8565b80156104055780601f106103da57610100808354040283529160200191610405565b820191906000526020600020905b8154815290600101906020018083116103e857829003601f168201915b5050505050905090565b600061041a82610fc9565b6004600083815260200190815260200160002060009054906101000a900473ffffffffffffffffffffffffffffffffffffffff169050919050565b6000610460826105ec565b90508073ffffffffffffffffffffffffffffffffffffffff168373ffffffffffffffffffffffffffffffffffffffff16036104d0576040517f08c379a00000000000000000000000000000000000000000000000000000000081526004016104c79061284b565b60405180910390fd5b8073ffffffffffffffffffffffffffffffffffffffff166104ef611014565b73ffffffffffffffffffffffffffffffffffffffff16148061051e575061051d81610518611014565b610e53565b5b61055d576040517f08c379a0000000000000000000000000000000000000000000000000000000008152600401610554906128dd565b60405180910390fd5b610567838361101c565b505050565b61057d610577611014565b826110d5565b6105bc576040517f08c379a00000000000000000000000000000000000000000000000000000000081526004016105b39061296f565b60405180910390fd5b6105c783838361116a565b505050565b6105e783838360405180602001604052806000815250610b59565b505050565b6000806105f883611463565b9050600073ffffffffffffffffffffffffffffffffffffffff168173ffffffffffffffffffffffffffffffffffffffff1603610669576040517f08c379a0000000000000000000000000000000000000000000000000000000008152600401610660906129db565b60405180910390fd5b80915050919050565b60008073ffffffffffffffffffffffffffffffffffffffff168273ffffffffffffffffffffffffffffffffffffffff16036106e2576040517f08c379a00000000000000000000000000000000000000000000000000000000081526004016106d990612a6d565b60405180910390fd5b600360008373ffffffffffffffffffffffffffffffffffffffff1673ffffffffffffffffffffffffffffffffffffffff168152602001908152602001600020549050919050565b6060600061075d610739846114a0565b6040516020016107499190612b15565b60405160208183030381529060405261156e565b9050600061079161076d856114a0565b60405160200161077d9190612b83565b60405160208183030381529060405261156e565b905060006107c56107a1866114a0565b6040516020016107b19190612bf1565b60405160208183030381529060405261156e565b9050600980549050836107d89190612c42565b9250600a80549050826107eb9190612c42565b9150600b80549050816107fe9190612c42565b90506000600367ffffffffffffffff81111561081d5761081c61258b565b5b60405190808252806020026020018201604052801561085057816020015b606081526020019060019003908161083b5790505b5090506009848154811061086757610866612c73565b5b90600052602060002001805461087c906127a8565b80601f01602080910402602001604051908101604052809291908181526020018280546108a8906127a8565b80156108f55780601f106108ca576101008083540402835291602001916108f5565b820191906000526020600020905b8154815290600101906020018083116108d857829003601f168201915b50505050508160008151811061090e5761090d612c73565b5b6020026020010181905250600a838154811061092d5761092c612c73565b5b906000526020600020018054610942906127a8565b80601f016020809104026020016040519081016040528092919081815260200182805461096e906127a8565b80156109bb5780601f10610990576101008083540402835291602001916109bb565b820191906000526020600020905b81548152906001019060200180831161099e57829003601f168201915b5050505050816001815181106109d4576109d3612c73565b5b6020026020010181905250600b82815481106109f3576109f2612c73565b5b906000526020600020018054610a08906127a8565b80601f0160208091040260200160405190810160405280929190818152602001828054610a34906127a8565b8015610a815780601f10610a5657610100808354040283529160200191610a81565b820191906000526020600020905b815481529060010190602001808311610a6457829003601f168201915b505050505081600281518110610a9a57610a99612c73565b5b602002602001018190525080945050505050919050565b606060018054610ac0906127a8565b80601f0160208091040260200160405190810160405280929190818152602001828054610aec906127a8565b8015610b395780601f10610b0e57610100808354040283529160200191610b39565b820191906000526020600020905b815481529060010190602001808311610b1c57829003601f168201915b5050505050905090565b610b55610b4e611014565b83836115a1565b5050565b610b6a610b64611014565b836110d5565b610ba9576040517f08c379a0000000000000000000000000000000000000000000000000000000008152600401610ba09061296f565b60405180910390fd5b610bb58484848461170d565b50505050565b6060610bc682610fc9565b6000600660008481526020019081526020016000208054610be6906127a8565b80601f0160208091040260200160405190810160405280929190818152602001828054610c12906127a8565b8015610c5f5780601f10610c3457610100808354040283529160200191610c5f565b820191906000526020600020905b815481529060010190602001808311610c4257829003601f168201915b505050505090506000610c70611769565b90506000815103610c85578192505050610cc8565b600082511115610cba578082604051602001610ca2929190612ca2565b60405160208183030381529060405292505050610cc8565b610cc384611780565b925050505b919050565b6000610cd960076117e8565b90506000610ce682610729565b9050600081600081518110610cfe57610cfd612c73565b5b60200260200101519050600082600181518110610d1e57610d1d612c73565b5b60200260200101519050600083600281518110610d3e57610d3d612c73565b5b602002602001015190506000838383604051602001610d5f93929190612cc6565b60405160208183030381529060405290506000600882604051602001610d86929190612ddb565b6040516020818303038152906040529050610da133886117f6565b6000610dd583610db084611814565b604051602001610dc1929190612f60565b604051602081830303815290604052611814565b9050600081604051602001610dea9190612ff1565b6040516020818303038152906040529050610e0589826119ab565b610e0f6007611a4f565b7febb98688741ffa4c7589bf325de30cf7becb63de567842e1ccdb6cb949fdc82c338a604051610e40929190613013565b60405180910390a1505050505050505050565b6000600560008473ffffffffffffffffffffffffffffffffffffffff1673ffffffffffffffffffffffffffffffffffffffff16815260200190815260200160002060008373ffffffffffffffffffffffffffffffffffffffff1673ffffffffffffffffffffffffffffffffffffffff16815260200190815260200160002060009054906101000a900460ff16905092915050565b60007f80ac58cd000000000000000000000000000000000000000000000000000000007bffffffffffffffffffffffffffffffffffffffffffffffffffffffff1916827bffffffffffffffffffffffffffffffffffffffffffffffffffffffff19161480610fb257507f5b5e139f000000000000000000000000000000000000000000000000000000007bffffffffffffffffffffffffffffffffffffffffffffffffffffffff1916827bffffffffffffffffffffffffffffffffffffffffffffffffffffffff1916145b80610fc25750610fc182611a65565b5b9050919050565b610fd281611acf565b611011576040517f08c379a0000000000000000000000000000000000000000000000000000000008152600401611008906129db565b60405180910390fd5b50565b600033905090565b816004600083815260200190815260200160002060006101000a81548173ffffffffffffffffffffffffffffffffffffffff021916908373ffffffffffffffffffffffffffffffffffffffff160217905550808273ffffffffffffffffffffffffffffffffffffffff1661108f836105ec565b73ffffffffffffffffffffffffffffffffffffffff167f8c5be1e5ebec7d5bd14f71427d1e84f3dd0314c0f7b2291e5b200ac8c7c3b92560405160405180910390a45050565b6000806110e1836105ec565b90508073ffffffffffffffffffffffffffffffffffffffff168473ffffffffffffffffffffffffffffffffffffffff16148061112357506111228185610e53565b5b8061116157508373ffffffffffffffffffffffffffffffffffffffff166111498461040f565b73ffffffffffffffffffffffffffffffffffffffff16145b91505092915050565b8273ffffffffffffffffffffffffffffffffffffffff1661118a826105ec565b73ffffffffffffffffffffffffffffffffffffffff16146111e0576040517f08c379a00000000000000000000000000000000000000000000000000000000081526004016111d7906130ae565b60405180910390fd5b600073ffffffffffffffffffffffffffffffffffffffff168273ffffffffffffffffffffffffffffffffffffffff160361124f576040517f08c379a000000000000000000000000000000000000000000000000000000000815260040161124690613140565b60405180910390fd5b61125c8383836001611b10565b8273ffffffffffffffffffffffffffffffffffffffff1661127c826105ec565b73ffffffffffffffffffffffffffffffffffffffff16146112d2576040517f08c379a00000000000000000000000000000000000000000000000000000000081526004016112c9906130ae565b60405180910390fd5b6004600082815260200190815260200160002060006101000a81549073ffffffffffffffffffffffffffffffffffffffff02191690556001600360008573ffffffffffffffffffffffffffffffffffffffff1673ffffffffffffffffffffffffffffffffffffffff168152602001908152602001600020600082825403925050819055506001600360008473ffffffffffffffffffffffffffffffffffffffff1673ffffffffffffffffffffffffffffffffffffffff16815260200190815260200160002060008282540192505081905550816002600083815260200190815260200160002060006101000a81548173ffffffffffffffffffffffffffffffffffffffff021916908373ffffffffffffffffffffffffffffffffffffffff160217905550808273ffffffffffffffffffffffffffffffffffffffff168473ffffffffffffffffffffffffffffffffffffffff167fddf252ad1be2c89b69c2b068fc378daa952ba7f163c4a11628f55a4df523b3ef60405160405180910390a461145e8383836001611b16565b505050565b60006002600083815260200190815260200160002060009054906101000a900473ffffffffffffffffffffffffffffffffffffffff169050919050565b6060600060016114af84611b1c565b01905060008167ffffffffffffffff8111156114ce576114cd61258b565b5b6040519080825280601f01601f1916602001820160405280156115005781602001600182028036833780820191505090505b509050600082602001820190505b600115611563578080600190039150507f3031323334353637383961626364656600000000000000000000000000000000600a86061a8153600a858161155757611556612c13565b5b0494506000850361150e575b819350505050919050565b6000816040516020016115819190613160565b6040516020818303038152906040528051906020012060001c9050919050565b8173ffffffffffffffffffffffffffffffffffffffff168373ffffffffffffffffffffffffffffffffffffffff160361160f576040517f08c379a0000000000000000000000000000000000000000000000000000000008152600401611606906131c3565b60405180910390fd5b80600560008573ffffffffffffffffffffffffffffffffffffffff1673ffffffffffffffffffffffffffffffffffffffff16815260200190815260200160002060008473ffffffffffffffffffffffffffffffffffffffff1673ffffffffffffffffffffffffffffffffffffffff16815260200190815260200160002060006101000a81548160ff0219169083151502179055508173ffffffffffffffffffffffffffffffffffffffff168373ffffffffffffffffffffffffffffffffffffffff167f17307eab39ab6107e8899845ad3d59bd9653f200f220920489ca2b5937696c31836040516117009190612145565b60405180910390a3505050565b61171884848461116a565b61172484848484611c6f565b611763576040517f08c379a000000000000000000000000000000000000000000000000000000000815260040161175a90613255565b60405180910390fd5b50505050565b606060405180602001604052806000815250905090565b606061178b82610fc9565b6000611795611769565b905060008151116117b557604051806020016040528060008152506117e0565b806117bf846114a0565b6040516020016117d0929190612ca2565b6040516020818303038152906040525b915050919050565b600081600001549050919050565b611810828260405180602001604052806000815250611df6565b5050565b60606000825190506000810361183c57604051806020016040528060008152509150506119a6565b6000600360028361184d91906132a4565b61185791906132d8565b60046118639190613309565b9050600060208261187491906132a4565b67ffffffffffffffff81111561188d5761188c61258b565b5b6040519080825280601f01601f1916602001820160405280156118bf5781602001600182028036833780820191505090505b5090506000604051806060016040528060408152602001613802604091399050600181016020830160005b868110156119635760038101905062ffffff818a015116603f8160121c168401518060081b905060ff603f83600c1c1686015116810190508060081b905060ff603f8360061c1686015116810190508060081b905060ff603f831686015116810190508060e01b905080845260048401935050506118ea565b50600386066001811461197d576002811461198d57611998565b613d3d60f01b6002830352611998565b603d60f81b60018303525b508484525050819450505050505b919050565b6119b482611acf565b6119f3576040517f08c379a00000000000000000000000000000000000000000000000000000000081526004016119ea906133bd565b60405180910390fd5b80600660008481526020019081526020016000209081611a139190613574565b507ff8e1a15aba9398e019f0b49df1a4fde98ee17ae345cb5f6b5e2c27f5033e8ce782604051611a4391906123cc565b60405180910390a15050565b6001816000016000828254019250508190555050565b60007f01ffc9a7000000000000000000000000000000000000000000000000000000007bffffffffffffffffffffffffffffffffffffffffffffffffffffffff1916827bffffffffffffffffffffffffffffffffffffffffffffffffffffffff1916149050919050565b60008073ffffffffffffffffffffffffffffffffffffffff16611af183611463565b73ffffffffffffffffffffffffffffffffffffffff1614159050919050565b50505050565b50505050565b600080600090507a184f03e93ff9f4daa797ed6e38ed64bf6a1f0100000000000000008310611b7a577a184f03e93ff9f4daa797ed6e38ed64bf6a1f0100000000000000008381611b7057611b6f612c13565b5b0492506040810190505b6d04ee2d6d415b85acef81000000008310611bb7576d04ee2d6d415b85acef81000000008381611bad57611bac612c13565b5b0492506020810190505b662386f26fc100008310611be657662386f26fc100008381611bdc57611bdb612c13565b5b0492506010810190505b6305f5e1008310611c0f576305f5e1008381611c0557611c04612c13565b5b0492506008810190505b6127108310611c34576127108381611c2a57611c29612c13565b5b0492506004810190505b60648310611c575760648381611c4d57611c4c612c13565b5b0492506002810190505b600a8310611c66576001810190505b80915050919050565b6000611c908473ffffffffffffffffffffffffffffffffffffffff16611e51565b15611de9578373ffffffffffffffffffffffffffffffffffffffff1663150b7a02611cb9611014565b8786866040518563ffffffff1660e01b8152600401611cdb949392919061369b565b6020604051808303816000875af1925050508015611d1757506040513d601f19601f82011682018060405250810190611d1491906136fc565b60015b611d99573d8060008114611d47576040519150601f19603f3d011682016040523d82523d6000602084013e611d4c565b606091505b506000815103611d91576040517f08c379a0000000000000000000000000000000000000000000000000000000008152600401611d8890613255565b60405180910390fd5b805181602001fd5b63150b7a0260e01b7bffffffffffffffffffffffffffffffffffffffffffffffffffffffff1916817bffffffffffffffffffffffffffffffffffffffffffffffffffffffff191614915050611dee565b600190505b949350505050565b611e008383611e74565b611e0d6000848484611c6f565b611e4c576040517f08c379a0000000000000000000000000000000000000000000000000000000008152600401611e4390613255565b60405180910390fd5b505050565b6000808273ffffffffffffffffffffffffffffffffffffffff163b119050919050565b600073ffffffffffffffffffffffffffffffffffffffff168273ffffffffffffffffffffffffffffffffffffffff1603611ee3576040517f08c379a0000000000000000000000000000000000000000000000000000000008152600401611eda90613775565b60405180910390fd5b611eec81611acf565b15611f2c576040517f08c379a0000000000000000000000000000000000000000000000000000000008152600401611f23906137e1565b60405180910390fd5b611f3a600083836001611b10565b611f4381611acf565b15611f83576040517f08c379a0000000000000000000000000000000000000000000000000000000008152600401611f7a906137e1565b60405180910390fd5b6001600360008473ffffffffffffffffffffffffffffffffffffffff1673ffffffffffffffffffffffffffffffffffffffff16815260200190815260200160002060008282540192505081905550816002600083815260200190815260200160002060006101000a81548173ffffffffffffffffffffffffffffffffffffffff021916908373ffffffffffffffffffffffffffffffffffffffff160217905550808273ffffffffffffffffffffffffffffffffffffffff16600073ffffffffffffffffffffffffffffffffffffffff167fddf252ad1be2c89b69c2b068fc378daa952ba7f163c4a11628f55a4df523b3ef60405160405180910390a461208d600083836001611b16565b5050565b6000604051905090565b600080fd5b600080fd5b60007fffffffff0000000000000000000000000000000000000000000000000000000082169050919050565b6120da816120a5565b81146120e557600080fd5b50565b6000813590506120f7816120d1565b92915050565b6000602082840312156121135761211261209b565b5b6000612121848285016120e8565b91505092915050565b60008115159050919050565b61213f8161212a565b82525050565b600060208201905061215a6000830184612136565b92915050565b600081519050919050565b600082825260208201905092915050565b60005b8381101561219a57808201518184015260208101905061217f565b60008484015250505050565b6000601f19601f8301169050919050565b60006121c282612160565b6121cc818561216b565b93506121dc81856020860161217c565b6121e5816121a6565b840191505092915050565b6000602082019050818103600083015261220a81846121b7565b905092915050565b6000819050919050565b61222581612212565b811461223057600080fd5b50565b6000813590506122428161221c565b92915050565b60006020828403121561225e5761225d61209b565b5b600061226c84828501612233565b91505092915050565b600073ffffffffffffffffffffffffffffffffffffffff82169050919050565b60006122a082612275565b9050919050565b6122b081612295565b82525050565b60006020820190506122cb60008301846122a7565b92915050565b6122da81612295565b81146122e557600080fd5b50565b6000813590506122f7816122d1565b92915050565b600080604083850312156123145761231361209b565b5b6000612322858286016122e8565b925050602061233385828601612233565b9150509250929050565b6000806000606084860312156123565761235561209b565b5b6000612364868287016122e8565b9350506020612375868287016122e8565b925050604061238686828701612233565b9150509250925092565b6000602082840312156123a6576123a561209b565b5b60006123b4848285016122e8565b91505092915050565b6123c681612212565b82525050565b60006020820190506123e160008301846123bd565b92915050565b600081519050919050565b600082825260208201905092915050565b6000819050602082019050919050565b600082825260208201905092915050565b600061242f82612160565b6124398185612413565b935061244981856020860161217c565b612452816121a6565b840191505092915050565b60006124698383612424565b905092915050565b6000602082019050919050565b6000612489826123e7565b61249381856123f2565b9350836020820285016124a585612403565b8060005b858110156124e157848403895281516124c2858261245d565b94506124cd83612471565b925060208a019950506001810190506124a9565b50829750879550505050505092915050565b6000602082019050818103600083015261250d818461247e565b905092915050565b61251e8161212a565b811461252957600080fd5b50565b60008135905061253b81612515565b92915050565b600080604083850312156125585761255761209b565b5b6000612566858286016122e8565b92505060206125778582860161252c565b9150509250929050565b600080fd5b600080fd5b7f4e487b7100000000000000000000000000000000000000000000000000000000600052604160045260246000fd5b6125c3826121a6565b810181811067ffffffffffffffff821117156125e2576125e161258b565b5b80604052505050565b60006125f5612091565b905061260182826125ba565b919050565b600067ffffffffffffffff8211156126215761262061258b565b5b61262a826121a6565b9050602081019050919050565b82818337600083830152505050565b600061265961265484612606565b6125eb565b90508281526020810184848401111561267557612674612586565b5b612680848285612637565b509392505050565b600082601f83011261269d5761269c612581565b5b81356126ad848260208601612646565b91505092915050565b600080600080608085870312156126d0576126cf61209b565b5b60006126de878288016122e8565b94505060206126ef878288016122e8565b935050604061270087828801612233565b925050606085013567ffffffffffffffff811115612721576127206120a0565b5b61272d87828801612688565b91505092959194509250565b600080604083850312156127505761274f61209b565b5b600061275e858286016122e8565b925050602061276f858286016122e8565b9150509250929050565b7f4e487b7100000000000000000000000000000000000000000000000000000000600052602260045260246000fd5b600060028204905060018216806127c057607f821691505b6020821081036127d3576127d2612779565b5b50919050565b7f4552433732313a20617070726f76616c20746f2063757272656e74206f776e6560008201527f7200000000000000000000000000000000000000000000000000000000000000602082015250565b600061283560218361216b565b9150612840826127d9565b604082019050919050565b6000602082019050818103600083015261286481612828565b9050919050565b7f4552433732313a20617070726f76652063616c6c6572206973206e6f7420746f60008201527f6b656e206f776e6572206f7220617070726f76656420666f7220616c6c000000602082015250565b60006128c7603d8361216b565b91506128d28261286b565b604082019050919050565b600060208201905081810360008301526128f6816128ba565b9050919050565b7f4552433732313a2063616c6c6572206973206e6f7420746f6b656e206f776e6560008201527f72206f7220617070726f76656400000000000000000000000000000000000000602082015250565b6000612959602d8361216b565b9150612964826128fd565b604082019050919050565b600060208201905081810360008301526129888161294c565b9050919050565b7f4552433732313a20696e76616c696420746f6b656e2049440000000000000000600082015250565b60006129c560188361216b565b91506129d08261298f565b602082019050919050565b600060208201905081810360008301526129f4816129b8565b9050919050565b7f4552433732313a2061646472657373207a65726f206973206e6f74206120766160008201527f6c6964206f776e65720000000000000000000000000000000000000000000000602082015250565b6000612a5760298361216b565b9150612a62826129fb565b604082019050919050565b60006020820190508181036000830152612a8681612a4a565b9050919050565b600081905092915050565b7f46495253545f574f524400000000000000000000000000000000000000000000600082015250565b6000612ace600a83612a8d565b9150612ad982612a98565b600a82019050919050565b6000612aef82612160565b612af98185612a8d565b9350612b0981856020860161217c565b80840191505092915050565b6000612b2082612ac1565b9150612b2c8284612ae4565b915081905092915050565b7f5345434f4e445f574f5244000000000000000000000000000000000000000000600082015250565b6000612b6d600b83612a8d565b9150612b7882612b37565b600b82019050919050565b6000612b8e82612b60565b9150612b9a8284612ae4565b915081905092915050565b7f54484952445f574f524400000000000000000000000000000000000000000000600082015250565b6000612bdb600a83612a8d565b9150612be682612ba5565b600a82019050919050565b6000612bfc82612bce565b9150612c088284612ae4565b915081905092915050565b7f4e487b7100000000000000000000000000000000000000000000000000000000600052601260045260246000fd5b6000612c4d82612212565b9150612c5883612212565b925082612c6857612c67612c13565b5b828206905092915050565b7f4e487b7100000000000000000000000000000000000000000000000000000000600052603260045260246000fd5b6000612cae8285612ae4565b9150612cba8284612ae4565b91508190509392505050565b6000612cd28286612ae4565b9150612cde8285612ae4565b9150612cea8284612ae4565b9150819050949350505050565b60008190508160005260206000209050919050565b60008154612d19816127a8565b612d238186612a8d565b94506001821660008114612d3e5760018114612d5357612d86565b60ff1983168652811515820286019350612d86565b612d5c85612cf7565b60005b83811015612d7e57815481890152600182019150602081019050612d5f565b838801955050505b50505092915050565b7f3c2f746578743e3c2f7376673e00000000000000000000000000000000000000600082015250565b6000612dc5600d83612a8d565b9150612dd082612d8f565b600d82019050919050565b6000612de78285612d0c565b9150612df38284612ae4565b9150612dfe82612db8565b91508190509392505050565b7f7b226e616d65223a202200000000000000000000000000000000000000000000600082015250565b6000612e40600a83612a8d565b9150612e4b82612e0a565b600a82019050919050565b7f222c20226465736372697074696f6e223a20224120686967686c79206163636c60008201527f61696d656420636f6c6c656374696f6e206f6620737175617265732e222c202260208201527f696d616765223a22646174613a696d6167652f7376672b786d6c3b626173653660408201527f342c000000000000000000000000000000000000000000000000000000000000606082015250565b6000612efe606283612a8d565b9150612f0982612e56565b606282019050919050565b7f227d000000000000000000000000000000000000000000000000000000000000600082015250565b6000612f4a600283612a8d565b9150612f5582612f14565b600282019050919050565b6000612f6b82612e33565b9150612f778285612ae4565b9150612f8282612ef1565b9150612f8e8284612ae4565b9150612f9982612f3d565b91508190509392505050565b7f646174613a6170706c69636174696f6e2f6a736f6e3b6261736536342c000000600082015250565b6000612fdb601d83612a8d565b9150612fe682612fa5565b601d82019050919050565b6000612ffc82612fce565b91506130088284612ae4565b915081905092915050565b600060408201905061302860008301856122a7565b61303560208301846123bd565b9392505050565b7f4552433732313a207472616e736665722066726f6d20696e636f72726563742060008201527f6f776e6572000000000000000000000000000000000000000000000000000000602082015250565b600061309860258361216b565b91506130a38261303c565b604082019050919050565b600060208201905081810360008301526130c78161308b565b9050919050565b7f4552433732313a207472616e7366657220746f20746865207a65726f2061646460008201527f7265737300000000000000000000000000000000000000000000000000000000602082015250565b600061312a60248361216b565b9150613135826130ce565b604082019050919050565b600060208201905081810360008301526131598161311d565b9050919050565b600061316c8284612ae4565b915081905092915050565b7f4552433732313a20617070726f766520746f2063616c6c657200000000000000600082015250565b60006131ad60198361216b565b91506131b882613177565b602082019050919050565b600060208201905081810360008301526131dc816131a0565b9050919050565b7f4552433732313a207472616e7366657220746f206e6f6e20455243373231526560008201527f63656976657220696d706c656d656e7465720000000000000000000000000000602082015250565b600061323f60328361216b565b915061324a826131e3565b604082019050919050565b6000602082019050818103600083015261326e81613232565b9050919050565b7f4e487b7100000000000000000000000000000000000000000000000000000000600052601160045260246000fd5b60006132af82612212565b91506132ba83612212565b92508282019050808211156132d2576132d1613275565b5b92915050565b60006132e382612212565b91506132ee83612212565b9250826132fe576132fd612c13565b5b828204905092915050565b600061331482612212565b915061331f83612212565b925082820261332d81612212565b9150828204841483151761334457613343613275565b5b5092915050565b7f45524337323155524953746f726167653a2055524920736574206f66206e6f6e60008201527f6578697374656e7420746f6b656e000000000000000000000000000000000000602082015250565b60006133a7602e8361216b565b91506133b28261334b565b604082019050919050565b600060208201905081810360008301526133d68161339a565b9050919050565b60006020601f8301049050919050565b600082821b905092915050565b60006008830261342a7fffffffffffffffffffffffffffffffffffffffffffffffffffffffffffffffff826133ed565b61343486836133ed565b95508019841693508086168417925050509392505050565b6000819050919050565b600061347161346c61346784612212565b61344c565b612212565b9050919050565b6000819050919050565b61348b83613456565b61349f61349782613478565b8484546133fa565b825550505050565b600090565b6134b46134a7565b6134bf818484613482565b505050565b5b818110156134e3576134d86000826134ac565b6001810190506134c5565b5050565b601f821115613528576134f981612cf7565b613502846133dd565b81016020851015613511578190505b61352561351d856133dd565b8301826134c4565b50505b505050565b600082821c905092915050565b600061354b6000198460080261352d565b1980831691505092915050565b6000613564838361353a565b9150826002028217905092915050565b61357d82612160565b67ffffffffffffffff8111156135965761359561258b565b5b6135a082546127a8565b6135ab8282856134e7565b600060209050601f8311600181146135de57600084156135cc578287015190505b6135d68582613558565b86555061363e565b601f1984166135ec86612cf7565b60005b82811015613614578489015182556001820191506020850194506020810190506135ef565b86831015613631578489015161362d601f89168261353a565b8355505b6001600288020188555050505b505050505050565b600081519050919050565b600082825260208201905092915050565b600061366d82613646565b6136778185613651565b935061368781856020860161217c565b613690816121a6565b840191505092915050565b60006080820190506136b060008301876122a7565b6136bd60208301866122a7565b6136ca60408301856123bd565b81810360608301526136dc8184613662565b905095945050505050565b6000815190506136f6816120d1565b92915050565b6000602082840312156137125761371161209b565b5b6000613720848285016136e7565b91505092915050565b7f4552433732313a206d696e7420746f20746865207a65726f2061646472657373600082015250565b600061375f60208361216b565b915061376a82613729565b602082019050919050565b6000602082019050818103600083015261378e81613752565b9050919050565b7f4552433732313a20746f6b656e20616c7265616479206d696e74656400000000600082015250565b60006137cb601c8361216b565b91506137d682613795565b602082019050919050565b600060208201905081810360008301526137fa816137be565b905091905056fe4142434445464748494a4b4c4d4e4f505152535455565758595a6162636465666768696a6b6c6d6e6f707172737475767778797a303132333435363738392b2fa2646970667358221220c3da7564d101cac775af14054c7af5825e43770752cb1aa2b95e17606b843d8064736f6c634300081100333c73766720786d6c6e733d27687474703a2f2f7777772e77332e6f72672f323030302f73766727207072657365727665417370656374526174696f3d27784d696e594d696e206d656574272076696577426f783d273020302033353020333530273e3c7374796c653e2e62617365207b2066696c6c3a2077686974653b20666f6e742d66616d696c793a2073657269663b20666f6e742d73697a653a20323470783b207d3c2f7374796c653e3c726563742077696474683d273130302527206865696768743d2731303025272066696c6c3d27626c61636b27202f3e3c7465787420783d273530252720793d273530252720636c6173733d27626173652720646f6d696e616e742d626173656c696e653d276d6964646c652720746578742d616e63686f723d276d6964646c65273e",
  "linkReferences": {},
  "deployedLinkReferences": {}
}